:020000040800F2
:10000000184F002045010008610F0008630F000829
:10001000670F00086B0F00086F0F0008000000005A
:10002000000000000000000000000000730F000846
:10003000750F000800000000770F0008790F000816
:100040005F0100085F0100085F0100085F01000810
:100050005F0100085F0100085F0100085F01000800
:100060005F0100085F0100085F0100085F010008F0
:100070005F0100085F0100085F0100085F010008E0
:100080005F0100085F0100085F0100085F010008D0
:100090005F0100085F0100085F0100085F010008C0
:1000A0005F0100085F0100085F0100085F010008B0
:1000B0005F0100085F0100085F0100085F010008A0
:1000C0005F0100085F0100085F0100085F01000890
:1000D0005F0100087B0F00085F0100085F01000856
:1000E0005F0100085F0100085F0100085F01000870
:1000F0005F0100085F0100085F0100085F01000860
:100100005F0100085F0100085F0100085F0100084F
:100110005F0100085F0100085F0100085F0100083F
:100120005F0100085F0100085F0100085F0100082F
:10013000DFF80CD003F016FA00480047250F00083E
:10014000184F00200648804706480047FEE7FEE7B4
:10015000FEE7FEE7FEE7FEE7FEE7FEE7FEE7FEE777
:1001600045020008310100080CB500200190009004
:100170006B48006840F480306949086000BF6848F7
:10018000006800F4003000900198401C0190009835
:1001900018B90198B0F5A06FF1D16148006810F46A
:1001A000003F02D00120009001E000200090009864
:1001B000012842D15B48006840F0100059490860AE
:1001C0000846006820F0030008600846006840F018
:1001D000020008605248406851494860084640683B
:1001E00048600846406840F48060486008464068BF
:1001F00020F47C1048600846406840F4E8104860ED
:100200000846006840F08070086000BF44480068FD
:1002100010F0007FFAD04248406820F003004049C7
:1002200048600846406840F00200486000BF3C4813
:10023000406800F00C000828F9D10CBD10B5FFF79C
:1002400093FF10BD10B53648006840F001003449F6
:10025000086008464068344908403149486008460B
:100260000068324908402E4908600846006820F4BA
:10027000802008600846406820F4FE0048604FF483
:100280001F008860FFF7DAFF4FF000602849086020
:1002900010BD10B5002100200022214B5B6803F047
:1002A0000C0121B1042906D0082928D107E0214BEF
:1002B000214C236027E01F4B1F4C236023E0184B89
:1002C0005B6803F47010164B5B6803F48032022302
:1002D00003EB904022B9194B4343174C23600DE0C8
:1002E0000F4B5B6813F4003F04D0144B4343124C94
:1002F000236003E00F4B43430F4C236003E00D4B9F
:100300000D4C236000BF00BF054B5B68C3F30313B4
:100310000B4CE15C084B1B68CB40074C236010BDC5
:1003200000100240002002400000FFF8FFFFF6FE30
:1003300008ED00E000127A000000002000093D00F6
:100340000400002031490143314A1160704770B503
:10035000002100230F22C4780CB32D4C246804F430
:10036000E064C4F5E064210AC1F10403CA404478A2
:1003700004FA03F18478144021430901254C0678DE
:10038000A155047804F01F050124AC4005786D11D7
:100390004FF0E02606EB8505C5F8004109E004783A
:1003A00004F01F050124AC401B4D0678761145F87A
:1003B000264070BD194A0A400243154B1B1F1A60A4
:1003C000704739B1124A121D12680243104B1B1DAF
:1003D0001A6006E00E4A121D126882430C4B1B1D68
:1003E0001A607047042808D14FF0E021096941F0F4
:1003F00004014FF0E022116107E04FF0E0210969AC
:1004000021F004014FF0E022116170470000FA056D
:100410000CED00E000E400E080E100E080FFFF1F61
:1004200010B50446CA48844208D10121042000F0D6
:1004300027FB0021042000F023FB46E0C54884424E
:1004400008D10121082000F01BFB0021082000F04A
:1004500017FB3AE0C048844208D10121102000F087
:100460000FFB0021102000F00BFB2EE0BB48844264
:1004700008D10121202000F003FB0021202000F002
:10048000FFFA22E0B648844208D10121402000F062
:10049000F7FA0021402000F0F3FA16E0B148844258
:1004A00008D10121802000F0EBFA0021802000F02B
:1004B000E7FA0AE0AC48844207D10121801500F038
:1004C000DFFA0021A01500F0DBFA10BD10B5012104
:1004D000084600F0D5FA0021012000F0D1FA10BD45
:1004E0002DE9F041024600250026002000230024CB
:1004F000002791F803C00CF00F0591F803C01CF021
:10050000100F03D091F802C04CEA050591F800C025
:10051000BCF1000F31D0146800202BE04FF0010C2B
:100520000CFA00F3B1F800C00CEA03069E4220D199
:1005300083004FF00F0C0CFA03F7BC4305FA03FCE1
:100540004CEA040491F803C0BCF1280F06D14FF027
:10055000010C0CFA00FCC2F814C00AE091F803C0C8
:10056000BCF1480F05D14FF0010C0CFA00FCC2F8A9
:1005700010C0401C0828D1D31460B1F800C0BCF1F1
:10058000FF0F34DD546800202EE000F1080C4FF01E
:10059000010808FA0CF3B1F800C00CEA03069E4209
:1005A00021D183004FF00F0C0CFA03F7BC4305FA7E
:1005B00003FC4CEA040491F803C0BCF1280F05D1F8
:1005C00000F1080C08FA0CF8C2F8148091F803C086
:1005D000BCF1480F07D100F1080C4FF0010808FAF0
:1005E0000CF8C2F81080401C0828CED35460BDE837
:1005F000F0814FF6FF710180022181700421C170EA
:1006000070470246002093680B4201D0012000E0B1
:10061000002070470146886880B27047024600207B
:10062000D3680B4201D0012000E000207047014652
:10063000C86880B2704701617047416170470AB174
:10064000016100E041617047C16070474FF4803242
:100650000A438261816182618269826970470246D0
:100660000020424B18684FF68073184040EA021091
:1006700008433E4B186070473D49C8617047F0B56C
:100680000A46002300240021002500F00046B6F1B0
:10069000004F02D1354EF16901E0344E7168C0F36C
:1006A000034583B200F44016B6F5401F08D121F08F
:1006B00070612E4E766826F070662C4F7E6012E0D8
:1006C00000F48016B6F5801F06D1032606FA05F45D
:1006D000A14341F0706106E0460D360103FA06F6CB
:1006E000B14341F0706122B1460D360103FA06F6BE
:1006F000314300F00046B6F1004F02D11B4EF161CC
:1007000001E01A4E7160F0BD30B500228B071C0F5E
:100710000F2303FA04F2154B08338C1053F82430DE
:100720009343124C08348D1044F8253023468C1026
:1007300053F824308C07240F00FA04F423430B4CA5
:1007400008348D1044F8253030BD0A4908607047E0
:1007500000080140000C014000100140001401405D
:1007600000180140001C0140002001400000014031
:1007700000002042DC002042DD48006840F001001B
:10078000DB49086008464068DA490840D8494860B3
:1007900008460068D8490840D549086008460068FE
:1007A00020F4802008600846406820F4FE0048607D
:1007B0004FF41F0088607047CD49096821F48031EB
:1007C000CB4A11601146096821F480211160B0F50F
:1007D000803F03D0B0F5802F0ED106E0C4490968F0
:1007E00041F48031C24A116007E0C149096841F40F
:1007F000A021BF4A116000E000BF00BF704710B5E4
:1008000001460022002300204A11012A02D1B84CDF
:10081000236806E0022A02D1B54C236A01E0B44CF9
:10082000636A01F01F02012494401C4201D00120A0
:1008300000E0002010BD38B5002000900024002505
:1008400000BF3120FFF7DBFF05460098401C0090F9
:100850000098B0F5A06F01D0002DF2D03120FFF745
:10086000CEFF08B1012400E00024204638BD014637
:1008700000209F4A106820F0F80040EAC100106094
:1008800070479E490860704702460020984B5868A0
:1008900020F47C1042EA01031843954B58607047DE
:1008A00096490866704701460020914A506820F03A
:1008B00003000843506070478D48406800F00C000A
:1008C0007047014600208A4A506820F0F000084333
:1008D0005060704701460020854A506820F4E0606F
:1008E00008435060704701460020814A506820F458
:1008F000605040EAC1005060704729B17C4A527A8A
:1009000002437B4B5A7204E0794A527A8243784B15
:100910005A7270477A490860704701460020744A4D
:10092000506820F440400843506070470021754AE9
:1009300011706F4A82F82010012802D0042808D1D3
:1009400003E001216F4A117004E005216D4A117026
:1009500000E000BF00BF70476B4908607047644902
:10096000096A0143624A1162704767494439086065
:10097000704730B500210022002400235C4D6D68D3
:1009800005F00C0121B1042905D0082923D105E087
:100990005E4D056022E05D4D05601FE0544D6D68C1
:1009A00005F47012524D6D6805F48034022505EB94
:1009B00092421CB9564D554305600BE04C4D6D6895
:1009C00015F4003F03D0524D5543056002E04F4DF2
:1009D0005543056002E04D4D056000BF00BF444D2A
:1009E0006D6805F0F00109094A4D6B5C0568DD4052
:1009F00045603F4D6D6805F4E061090A454D6B5C4B
:100A00004568DD4085603A4D6D6805F46051C90A5E
:100A1000404D6B5C4568DD40C560354D6D6805F443
:100A20004041890B3C4D6B5CC568B5FBF3F5056136
:100A300030BD29B12E4A526902432D4B5A6104E060
:100A40002B4A526982432A4B5A61704729B1284A7E
:100A500092690243264B9A6104E0254A92698243D7
:100A6000234B9A61704729B1214AD2690243204B36
:100A7000DA6104E01E4AD26982431D4BDA61704795
:100A800029B11B4AD2680243194BDA6004E0184AC4
:100A9000D2688243164BDA60704729B1144A126952
:100AA0000243134B1A6104E0114A12698243104B4E
:100AB0001A61704714494039086070470F49C8648B
:100AC00070470B49C87170470948406A40F0807010
:100AD00007494862704701460020054A92680A4269
:100AE00001D0012000E00020704701498872704762
:100AF000001002400000FFF8FFFFF6FE0000424237
:100B0000D8004242201002408004424200127A0083
:100B100000093D00140000202400002010B5044608
:100B2000FB48844209D101218803FFF7A9FF002176
:100B30004FF48040FFF7A4FF32E0F648844209D129
:100B400001214804FFF7A9FF00214FF40030FFF70F
:100B5000A4FF25E0F048844209D101218804FFF771
:100B60009CFF00214FF48020FFF797FF18E0EB482F
:100B7000844209D10121C804FFF78FFF00214FF4FF
:100B80000020FFF78AFF0BE0E548844208D10121ED
:100B90000805FFF782FF00214FF48010FFF77DFF6B
:100BA00010BD2DE9F04786B005460E460024A2464A
:100BB00000BFA1460027B08900B100BF2F462C8A94
:100BC0004CF6FF700440F08804432C82AC894EF64A
:100BD000F3100440B0883189084371890843044305
:100BE000AC81AC8A4FF6FF400440B0890443AC822C
:100BF00001A8FFF7BEFEC648874202D1DDF810A06B
:100C000001E0DDF80CA0A88910F4004F08D00AEB31
:100C1000CA0000EB0A1031684900B0FBF1F807E0A8
:100C20000AEBCA0000EB0A1031688900B0FBF1F84A
:100C30006420B8FBF0F004012009642101FB108955
:100C4000A88910F4004F08D0322000EBC900B0FB97
:100C5000F1F000F00700044308E0322000EB091037
:100C60006421B0FBF1F000F00F0004432C8106B0CA
:100C7000BDE8F0874FF41651016000218180C180EA
:100C800001810C21418100218181704710B502460C
:100C90000020108A4FF2FF0318400B884C88234332
:100CA0008C882343CC8823431843108210BD002135
:100CB000018041808180C180704721B1828942F4E6
:100CC0000052828104E082894DF6FF731A408281CE
:100CD0007047F0B503460024002600250020A1F54A
:100CE00010676A3F00D100BF1846C1F3421401F0FB
:100CF0001F06012707FA06F5012C01D10C3004E08C
:100D0000022C01D1103000E014301AB107682F43D3
:100D1000076002E00768AF430760F0BD1AB1838A3D
:100D20000B43838202E0838A8B4383827047028A6B
:100D30004FF6F0731A400282028A0A430282704719
:100D400082894FF2FF731A40828182890A4382812D
:100D5000704721B1828942F00202828104E08289D7
:100D60004FF6FD731A4082817047028A4FF6DF7397
:100D70001A400282028A0A430282704721B1028A23
:100D800042F48042028204E0028A4BF6FF731A406A
:100D900002827047C1F3080282807047014688884A
:100DA000C0F308007047818941F0010181817047DB
:100DB000028BD2B20283028B42EA01220283704785
:100DC000028B02F47F420283028B0A430283704744
:100DD00021B1828A42F02002828204E0828A4FF6A8
:100DE000DF731A408282704721B1828A42F010027A
:100DF000828204E0828A4FF6EF731A408282704743
:100E000021B1828A42F00802828204E0828A4FF68F
:100E1000F7731A408282704721B1828942F40042FE
:100E2000828103E08289C2F30E028281704721B180
:100E3000828A42F40062828204E0828A4FF2FF7367
:100E40001A4082827047828A4FF6FB731A40828270
:100E5000828A0A438282704721B1828A42F002026A
:100E6000828204E0828A4FF6FD731A4082827047C4
:100E700002460020B1F5007F00D100BF13880B426D
:100E800001D0012000E00020704701F40072B2F5AB
:100E9000007F00D100BFCA430280704770B5024690
:100EA0000024002300250020A1F510666A3E00D131
:100EB00000BFC1F3421501F01F03012606FA03F338
:100EC000012D02D19689334006E0022D02D1168A07
:100ED000334001E0968A33400C12012606FA04F4EE
:100EE0001688344013B10CB1012000E0002070BD21
:100EF00010B500220023A1F510646A3C00D100BFA8
:100F00000A1201249440A3B2DC43048010BD000007
:100F1000003801400044004000480040004C0040C0
:100F200000500040482000F07DFA00F041F800F049
:100F3000FFF806A002F07AFB00F028F907490860E4
:100F400000F0BAF901E000F084F8FCE7204C697386
:100F50007420546573740D0A0000000030000020F6
:100F6000704700BFFEE700BFFEE700BFFEE700BF1F
:100F7000FEE7704770477047704710B540F2255143
:100F80000848FFF78BFF60B10648FFF707FFC4B2C0
:100F9000054806490978445404480078401C034930
:100FA000087010BD003801406800002028000020B3
:100FB00000B587B0012144F20400FFF747FD4FF46C
:100FC0000070ADF8180018208DF81B0003208DF874
:100FD0001A0006A94D48FFF783FA4FF48060ADF878
:100FE000180004208DF81B0006A94848FFF778FA7E
:100FF0004FF4E13002900020ADF80C00ADF80E0087
:10100000ADF81000ADF814000C20ADF8120002A9E4
:101010003F48FFF7C6FD012240F225513C48FFF74B
:1010200058FE01213A48FFF748FE4FF4E060FFF711
:1010300089F925208DF8040000208DF80500012095
:101040008DF806008DF8070001A8FFF780F907B0BA
:1010500000BD10B52F4804780088844224D11CB309
:101060000A2000F0FBF92B48008884421CD1DCB137
:10107000284802882849294801F01EFF2548018890
:10108000254801F032FF002022490880234924A08E
:1010900002F0CCFA24A002F0C9FA204800F024FAA9
:1010A00021461E4801F021FF10BD2DE9F041044604
:1010B0000D460026002700BF07E03046711CCEB267
:1010C000275C394619A002F0B1FAAE42F5DBBDE863
:1010D000F08170B504460D46E1B20D48FFF75AFEA7
:1010E00000BF40210A48FFF7C3FE0028F9D0204680
:1010F00070BD10B5044600BF20210548FFF7B8FEBB
:101100000028F9D00248FFF749FE10BD0008014051
:1011100000380140280000206800002088030020DB
:1011200025730D0A000000000D0A00002564000070
:1011300008B501211820FFF789FC0120ADF8000057
:1011400010208DF8030003208DF8020069460D4839
:10115000FFF7C6F90820ADF8000069460A48FFF716
:10116000BFF91020ADF8000069460748FFF7B8F94D
:1011700001210448FFF75FFA18210348FFF75DFAE1
:1011800008BD0000000C01400010014010B51C20FB
:1011900002F0E4FF844908600846006820B983A093
:1011A00002F044FA002010BD00207F490968087051
:1011B0007D480068002140F8011F41600181002046
:1011C00079490968C8720A21774800680C3001F033
:1011D0008CFE002074490968886173480068E2E762
:1011E0002DE9F04106467048006885696E48076839
:1011F0001C2002F0B3FF04462CB96EA002F016FAD0
:101200000020BDE8F08130782070711C601C01F076
:1012100096FEF07AE07206F10C0104F10C0001F088
:101220008EFE17E020782978884211D1691C601C55
:1012300001F077FE691C601C01F073FE40B9E07A92
:10124000E97A884204D15DA002F0F0F90020D8E7E5
:101250002F46AD69002DE5D1B869A061BC610120C0
:10126000CFE738B550480068846909E004F10C0004
:101270000090E37A2178621C53A002F0D7F9A469A8
:10128000002CF3D138BD70B5064647480068846924
:10129000454805680BE02078B04206D1A069A861F6
:1012A000204602F033FFAC6901E02546A469002C1A
:1012B000F1D1FFF7D6FF70BD10B51C2002F04EFF34
:1012C000044624B94AA002F0B1F9002010BD012063
:1012D000207049A1601C01F032FE0120E07247A19C
:1012E00004F10C0001F02BFE2046FFF779FF0220ED
:1012F000207044A1601C01F022FE0120E07243A195
:1013000004F10C0001F01BFE2046FFF769FF0220EC
:10131000207039A1601C01F012FE0120E0723DA195
:1013200004F10C0001F00BFE2046FFF759FF1C20D2
:1013300002F014FF04460220207032A1601C01F06C
:10134000FEFD0420E07235A104F10C0001F0F7FD70
:101350002046FFF745FF1C2002F000FF0446012055
:10136000207028A1601C01F0EAFD0620E07227A190
:1013700004F10C0001F0E3FD2046FFF731FF0420EB
:1013800020701DA1601C01F0DAFD0120E0721BA19C
:1013900004F10C0001F0D3FD2046FFF721FFFFF719
:1013A00060FF012092E700003000002066616C734E
:1013B0006531000066616C736532000072657065AE
:1013C00061740D0A0000000020616464723A2564B3
:1013D0002C747970653A25732C6368616E656C3A7C
:1013E00025642C646174613A25730D0A00000000C5
:1013F00066616C7365300000494F0000756E707255
:101400006573730052656C61790000006F70656EE2
:10141000000000007072657373000000636C6F73EE
:10142000650000004FF0E021096921F004014FF050
:10143000E0221161C21700EB5272C2F3C702284BBF
:101440001A701946097801EB4102C2EBC1114FF63F
:10145000FF7202EAC101234A118070470146214A06
:1014600012884A434FF0E0235A6100229A61012218
:101470001A6100BF4FF0E022106910F0010F02D096
:1014800010F4803FF6D000224FF0E0231A619A61F9
:10149000704710B5044604E04FF47A70FFF7DEFFA2
:1014A000641E002CF8D110BD01460D4A12784A4343
:1014B0004FF0E0235A6100229A6101221A6100BFB5
:1014C0004FF0E022106910F0010F02D010F4803FBD
:1014D000F6D000224FF0E0231A619A6170470000B5
:1014E00034000020360000202DE9F04F85B0824600
:1014F0001421684601F0F9FC4FF00008504600F056
:1015000009FF8146B9F1000F07D100F095F9834634
:10151000594682A002F08AF8B1E085A1484601F060
:101520005CF9044634B183A0216902F07FF886A0FB
:1015300002F07CF885A1484601F04FF9044634B129
:1015400084A0216902F072F87FA002F06FF887A1F1
:10155000484601F042F9044634B185A0216902F001
:1015600065F879A002F062F886A1484601F035F9E5
:10157000064636B186A0716902F058F872A002F0F2
:1015800055F889A1484601F028F9044674B188A0AD
:10159000216902F04BF8204601F0FDF883465946D8
:1015A00083A002F043F868A002F040F886A1484604
:1015B00001F013F90546002D61D085A0296902F0DC
:1015C00035F8284601F0E7F88346594680A002F036
:1015D0002DF8284601F0E7F8834659467CA002F032
:1015E00025F8286900F096FE07463FB900F024F977
:1015F0008346594649A002F019F840E04FF0000830
:1016000037E0424674A1684602F020F86946384641
:1016100001F0E3F80446002C27D072A1206901F004
:1016200080FC28B97048006880F001006E490860AD
:101630006EA1206901F075FC28B96D48C06880F082
:1016400010006B49C8606BA1206901F06AFC28B9E1
:101650006748C06880F008006549C86067A02169D4
:1016600001F0E4FF38A001F0E1FF08F1010000F013
:10167000FF08B8F1060FC4DB384600F03FF94846D2
:1016800000F03CF905B0BDE8F08F2DE9F0410646C9
:10169000002421E02146304601F096F80546E8682E
:1016A000062806D12846FFF7F0FF27A001F0BEFF6D
:1016B00011E058A0296A01F0B9FF23A001F0B6FF9C
:1016C000284601F068F80746394654A001F0AEFFFD
:1016D0001DA001F0ABFF641C304601F06CF8A04285
:1016E000D8DCBDE8F0812DE9F041A0B0804664214E
:1016F00007A801F0FAFB7B2449A0006806903A2570
:101700002C267D2747A207CA03AB07C348A103C9FC
:10171000CDE9010120B0BDE8F08100004572726F93
:1017200072206265666F72653A205B25735D0A0000
:10173000636D640047657420636D6420737472691F
:101740006E673A25730D0A000D0A00006D6F64651F
:101750006C000000476574206D6F64656C207374C5
:1017600072696E673A25730D0A00000073696400A0
:101770004765742073696420737472696E673A25D3
:10178000730D0A0073686F72745F69640000000073
:101790004765742073686F72745F69642076616C4A
:1017A00075653A25640D0A00746F6B656E00000064
:1017B00047657420746F6B656E20737472696E6711
:1017C0003A25730D0A000000646174610000000096
:1017D00025730D0A000000006368616E6E656C5F22
:1017E000256400006F6E00000C0C01406F666600FF
:1017F000001001407365656B0000000047657420B0
:101800006461746120737472696E673A25730D0A9E
:101810000000000025732D3E0000000025730A0023
:10182000220000006368616E6E656C5F310000002D
:101830006F70656E00000000F7480068704770B573
:1018400004460D462CB9AC4201D0012070BD0020E9
:10185000FCE70DB90120F9E705E0207808B9002080
:10186000F4E7641C6D1C207801F020FB0646287804
:1018700001F01CFB8642F0D0207801F017FB0646F1
:10188000287801F013FB301AE0E770B504462046D3
:1018900001F040FB451C2846E049096888470600DE
:1018A00000D170BD2A462146304601F005FB304686
:1018B000F7E730B9DA49D94A1160DA49DA4A1160F2
:1018C0007047016809B1016800E0D549D34A116049
:1018D000416809B1416800E0D249D34A116000BFB4
:1018E000EEE710B52820CD490968884704461CB1A9
:1018F0002821204601F0F9FA204610BD70B50446B3
:101900001EE02568A08910F4807F04D1A06810B182
:10191000A068FFF7F3FFA08910F4807F05D120694C
:1019200018B1C149206909688847206A18B1BE49C1
:10193000206A096888472046BB49096888472C46C1
:10194000002CDED170BD2DE9F04F8BB083468A4666
:101950000020044605460026B44F002188468946EB
:101960000990012008909AF800002D2802D1B04F6C
:101970000AF1010A9AF80000302801D10AF1010A9F
:101980009AF80000312822DB9AF8000039281EDC82
:1019900000BF1AF8011BA1F1300001F001FC002288
:1019A000A44BCDE906012046294601F087FBCDE98D
:1019B0000401DDE9062301F0DAFA04460D469AF83F
:1019C0000000302803DB9AF800003928E1DD9AF89E
:1019D00000002E2830D19AF8010030282CDB9AF82C
:1019E0000100392828DC0AF1010A00BF1AF8011B9E
:1019F000A1F1300001F0D4FB00228E4BCDE90601AD
:101A00002046294601F05AFBCDE90401DDE9062311
:101A100001F0ADFA04460D460022844B404649468B
:101A200001F046FB804689469AF80000302803DB27
:101A30009AF800003928D9DD9AF80000652803D00B
:101A40009AF80000452823D10AF1010A9AF800000B
:101A50002B2802D10AF1010A08E09AF800002D288B
:101A600004D14FF0FF3008900AF1010A08E01AF89B
:101A7000010B3038099901EB810100EB410009901D
:101A80009AF80000302803DB9AF800003928EEDDD0
:101A9000DDE9082101FB02F001F082FB42464B46E2
:101AA000CDE9000101F063FA02460B46CDE90201DF
:101AB0000020604902F088FB22462B46CDE9060152
:101AC0003046394601F0FAFACDE90401DDE9062392
:101AD00001F0F4FA04460D46CBE9064520462946B6
:101AE00001F06FFBCBF814000320CBF80C0050463C
:101AF0000BB0BDE8F08F2DE9F05F8146D9E90645CE
:101B0000D9F8140001F04CFB074622462B4601F0A1
:101B1000CFFA21F0004182460022474B01F084FBBE
:101B20001BD8464A464B2046294601F07DFB14D877
:101B30000022444B2046294601F08AFB0DD815208F
:101B40003649096888470646002E4CD03EA13046EB
:101B5000D9F8142001F07AFD45E040202F490968AA
:101B600088470646002E3ED02046294602F060FAFD
:101B7000074622462B4601F09BFA21F0004182469F
:101B800000222D4B01F050FB0FD825F000412746D5
:101B90002E4A2F4B384601F047FB06D222462B46F1
:101BA0002CA1304601F052FD1DE025F000412746F2
:101BB0002A4A2B4B384601F037FB07D325F000416A
:101BC0000022284B384601F043FB06D222462B4622
:101BD00025A1304601F03AFD05E022462B4623A11F
:101BE000304601F033FD3046BDE8F09F014600224B
:101BF0000878302806DB0878392803DC0878303884
:101C0000024441E00878412832DB087846282FDC7E
:101C100008783738024437E04000002038000020C0
:101C20005D4100080D4100083C0000200000F03F2D
:101C30000000F0BF000024400000B03C0000C0FFE6
:101C4000FFFFDF410000E0C12564000044F3C2E46F
:101C5000E4E9634C252E3066000000008DEDB5A050
:101C6000F7C6B03E65CDCD41256500002566000074
:101C70000878612806DB0878662803DC087857387E
:101C8000024401E0002070471201491C0878302806
:101C900006DB0878392803DC08783038024415E080
:101CA0000878412806DB0878462803DC08783738AE
:101CB00002440BE00878612806DB0878662803DC1C
:101CC00008785738024401E00020DCE71201491C83
:101CD0000878302806DB0878392803DC08783038A3
:101CE000024415E00878412806DB0878462803DC22
:101CF0000878373802440BE00878612806DB08785A
:101D0000662803DC08785738024401E00020BAE76F
:101D10001201491C0878302806DB0878392803DCD2
:101D200008783038024415E00878412806DB087846
:101D3000462803DC0878373802440BE0087861282D
:101D400006DB0878662803DC08785738024401E08F
:101D5000002098E7104696E72DE9F05F8346884615
:101D600008F10104002798F80000222805D0F74860
:101D7000C0F800800020BDE8F09F04E014F8011BCB
:101D80005C2900D1641C2078222804D0207810B16E
:101D9000781C0700F2D1781CED4909688847814614
:101DA000B9F1000F01D10020E5E708F101044D462B
:101DB0009EE020785C2804D014F8010B05F8010B94
:101DC00096E0641C2078722818D006DC622809D0BE
:101DD00066280BD06E287DD10CE0742812D07528AF
:101DE000F9D113E0082005F8010B7FE00C2005F87D
:101DF000010B7BE00A2005F8010B77E00D2005F8C8
:101E0000010B73E0092005F8010B6FE0601CFFF780
:101E1000EDFE0646241DB6F55C4F02D3B6F5604FC5
:101E200000D306B962E0B6F5584F1CD3B6F55C4F47
:101E300019D260785C2802D1A078752800D055E0CE
:101E4000E01CFFF7D3FE8246A41DBAF55C4F02D317
:101E5000BAF5604F00D349E0C6F30901504661F37B
:101E60009F2000F580360427802E01D2012708E04C
:101E7000B6F5006F01D2022703E0B6F5803F00D22D
:101E800003273D44012F20D0022F15D0032F0AD065
:101E9000042F24D106F0BF0040F08001681E0546E3
:101EA0000170B60900BF06F0BF0040F08001681E57
:101EB00005460170B60900BF06F0BF0040F0800182
:101EC000681E05460170B60900BFA248C05D3043D8
:101ED000C1B200E006E0681E0546017000BF00BF09
:101EE0003D4403E0207805F8010B00BF00BF641CEF
:101EF0002078222803D0207800287FF45AAF0020D1
:101F000028702078222800D1641CCBF8109004207F
:101F1000CBF80C0020462EE72DE9F04707464FF09E
:101F200000082FB9AFF2D020FFF7AFFCBDE8F08773
:101F30003D460DE0494688A000F0E2FF10B108F1EF
:101F4000010804E0B9F1200F01DA08F105086D1C61
:101F500095F80090B9F1000F04D008F101005FEA94
:101F60000008E7D108F10300794909688847064667
:101F70000EB90020DAE734463D46222004F8010B72
:101F800047E028781F280ADD2878222807D02878FB
:101F90005C2804D015F8010B04F8010B39E05C2033
:101FA00004F8010B15F8011B89460C2919D006DC31
:101FB000082912D0092920D00A2922D115E00D299B
:101FC00017D0222905D05C291BD15C2004F8010B15
:101FD0001EE0222004F8010B1AE0622004F8010B35
:101FE00016E0662004F8010B12E06E2004F8010BE5
:101FF0000EE0722004F8010B0AE0742004F8010BD3
:1020000006E04A4656A1204601F020FB641D00BFB1
:1020100000BF28780028B4D1222004F8010B00204A
:1020200004F8010B304681E710B504462069FFF73C
:1020300073FF10BD00E0401C20B1017811B10178A0
:102040002029F8DD70472DE9F04706460C46207838
:102050007B2804D03D4804600020BDE8F0870620BE
:10206000F060601CFFF7E6FF044620787D2801D170
:10207000601CF2E7FFF735FC0546B060B06808B9B0
:102080000020EAE72046FFF7D5FF80464146284674
:10209000FFF762FE0746FFF7CDFF04460CB90020AC
:1020A000DBE7286928620020286120783A2803D0DD
:1020B000264804600020D0E7601CFFF7BBFF804685
:1020C0004146284600F0A7F80746FFF7B3FF04464D
:1020D0000CB90020C1E731E0FFF703FC070000D195
:1020E000BBE72F607D603D46601CFFF7A3FF814684
:1020F00049462846FFF730FE8046FFF79BFF04461F
:102100000CB90020A9E728692862002028612078FE
:102110003A2803D00D48046000209EE7601CFFF7BA
:1021200089FF81464946284600F075F88046FFF74A
:1021300081FF04460CB900208FE700BF20782C28CF
:10214000CAD020787D280FD1601C86E7400000208F
:1021500038000020F44B0008225C080C0A0D09002E
:102160007525303478000000FE480460002074E7D4
:102170002DE9F04705460C4620785B2804D0F94845
:1021800004600020BDE8F0870520E860601CFFF7D0
:1021900051FF044620785D2801D1601CF2E7FFF76B
:1021A000A0FB0646A860A86808B90020EAE7204618
:1021B000FFF740FF80464146304600F02CF80746C6
:1021C000FFF738FF04460CB90020DBE717E0FFF704
:1021D00088FB070000D1D5E737607E603E46601C73
:1021E000FFF728FF81464946304600F014F8804644
:1021F000FFF720FF04460CB90020C3E700BF20789A
:102200002C28E4D020785D2801D1601CBAE7D5489D
:1022100004600020B6E770B505460C460CB90020F6
:1022200070BD0422D0A1204600F092FE18B9022011
:10223000E860201DF4E70522CDA1204600F088FECD
:1022400018B90020E860601DEAE70422CAA1204610
:1022500000F07EFE20B90120E8606861201DDFE704
:102260002078222804D121462846FFF775FDD7E7BC
:1022700020782D2805D02078302807DB20783928D1
:1022800004DC21462846FFF75EFBC9E720785B287F
:1022900004D121462846FFF76BFFC1E720787B2851
:1022A00004D121462846FFF7CEFEB9E7AD480460C9
:1022B0000020B5E72DE9F04780460D46164600247C
:1022C000FFF70FFB07460020A64908600FB9BDE8DD
:1022D000F0874046FFF7AEFE814649463846FFF795
:1022E0009AFF044624B93846FFF708FB0020EEE7C2
:1022F00066B12046FFF79EFE0446207830B138468E
:10230000FFF7FCFA974804600020E0E705B12C6075
:102310003846DCE710B50446002211462046FFF798
:10232000C9FF10BD2DE9F74F88B0884616464FF01B
:102330000009CA460020079007200490002508984D
:102340008068029000270020019003E07F1C029823
:102350000068029002980028F8D14FBB16B108F12E
:10236000040100E003210846854909688847079071
:10237000079818B900200BB0BDE8F08F079C7B20B0
:1023800004F8010B66B10A2004F8010B002503E0F4
:10239000092004F8010B6D1CA8F10100A842F7DC2C
:1023A0007D2004F8010B002004F8010B0798E2E7F8
:1023B000B8007349096888478146B9F1000F01D117
:1023C0000020D8E7B8006E49096888478246BAF10C
:1023D000000F05D148466B49096888470020CAE7C5
:1023E000B900484600F081FDB900504600F07DFD7F
:1023F00008988068029008F1010816B104984044DA
:1024000004902DE00299086AFFF786FD05904AF8CE
:10241000250032464146029800F07DF929466D1CA0
:10242000069049F821000598A8B1069898B1069839
:1024300000F070FD8346059800F06CFD0BEB000189
:10244000891C16B108F1020000E000200144049844
:102450000844049001E00120019002980068029075
:1024600002980028CED1019820B9454904980968FE
:1024700088470790079808B9012001900198F0B1AA
:10248000002510E05AF8250020B15AF825003D49F2
:102490000968884759F8250020B159F825003949BD
:1024A000096888476D1CBD42ECDB50463549096818
:1024B0008847484633490968884700205BE77B2105
:1024C000079801700798441C16B10A2004F8010B04
:1024D0000020207000253EE05EB10020039005E062
:1024E000092004F8010B0398401C03900398404511
:1024F000F6DB5AF82510204600F021FD5AF8250099
:1025000000F008FD04443A2004F8010B16B109203C
:1025100004F8010B59F82510204600F010FD59F879
:10252000250000F0F7FC0444781EA84202D02C20BD
:1025300004F8010B16B10A2004F8010B00202070EA
:102540005AF825000F490968884759F825000D49B0
:10255000096888476D1CBD42BEDB504609490968C1
:10256000884711E0400000206E756C6C0000000090
:1025700066616C7365000000747275650000000090
:10258000380000203C0000204846F8490968884788
:102590004EB1002503E0092004F8010B6D1CA8F1E1
:1025A0000100A842F7DC7D2004F8010B002004F8AC
:1025B000010B0798DFE62DE9F74F82B083464FF015
:1025C000000805200190DBF8089000270025002076
:1025D000009002E07F1CD9F80090B9F1000FF9D10A
:1025E0007FB90320E249096888478046B8F1000FA7
:1025F00003D0E0A1404600F0A2FC404605B0BDE893
:10260000F08FB800DA490968884706460EB90020FD
:10261000F4E7B900304600F068FCDBF808901FE0F2
:10262000DDE90312491C484600F075F88246294648
:102630006D1C46F821A0BAF1000F0DD0504600F0F5
:1026400069FC801C049909B1012100E000210144CA
:1026500001980844019001E001200090D9F8009011
:10266000B9F1000F02D000980028D9D0009820B905
:10267000BF490198096888478046B8F1000F01D129
:1026800001200090009890B1002508E056F8250040
:1026900020B156F82500B549096888476D1CBD4230
:1026A000F4DB3046B149096888470020A6E75B2083
:1026B00088F8000008F101040020207000251CE0CB
:1026C00056F82510204600F03AFC56F8250000F098
:1026D00021FC0444781EA84209D02C2004F8010BE8
:1026E000049810B1202004F8010B0020207056F847
:1026F00025009E49096888476D1CBD42E0DB3046D5
:102700009A49096888475D2004F8010B002004F805
:10271000010B404672E72DE9F04104460D4616468E
:10272000002714B90020BDE8F081207B07282FD2B4
:10273000DFE800F00A1004161B202700AFF2D810C3
:10274000FFF7A3F8074623E0AFF2DC10FFF79DF890
:1027500007461DE0AFF2E010FFF797F8074617E0D5
:102760002046FFF7C8F9074612E02046FFF75CFC59
:1027700007460DE0324629462046FFF71CFF074674
:1027800006E0324629462046FFF7CCFD074600BF4B
:1027900000BF3846C7E710B5044601220021204695
:1027A000FFF7B9FF10BD10B50446002211462046C0
:1027B000FFF7B1FF10BD01468A68002001E0401C10
:1027C0001268002AFBD170470246906801E0491E5A
:1027D000006808B10029FADC704770B505460E465E
:1027E000AC6800E024682CB13146206AFFF727F876
:1027F0000028F7D1204670BD01604860704770B571
:102800000546FFF76EF804460CB9002070BD28227B
:102810002946204600F080FA00202062E06840F45B
:102820008070E0600020606020602046EEE770B5B8
:1028300005460E46AC6806B970BD0CB9AE6009E03D
:1028400000E0246814B120680028FAD131462046FF
:10285000FFF7D2FF00BFEFE770B506460D461446FE
:1028600004B970BD206A18B14049206A09688847D8
:102870002846FFF70AF8206221463046FFF7D7FFC7
:1028800000BFEEE770B505460C462046FFF7B7FFE0
:10289000064631462846FFF7CAFF70BD2DE9F041D4
:1028A00005460E4614462046FFF7A9FF07463A465E
:1028B00031462846FFF7D0FFBDE8F08110B502464B
:1028C0000B46916801E009685B1E09B1002BFADC38
:1028D00009B9002010BD486810B1D1E9000420609A
:1028E000086810B1D1E9004060609068884201D169
:1028F000086890600020086048600846EAE770B504
:1029000004460D4629462046FFF7D8FF0646FEF747
:10291000F5FF70BD2DE9F04105460F460026AC6875
:1029200001E0761C24682CB13946206AFEF787FF47
:102930000028F6D12CB131462846FFF7BFFFBDE88D
:10294000F0810020FBE770B504460D46294620467D
:10295000FFF7E0FF0646FEF7D1FF70BD2DE9F0411D
:1029600006460F461446B56808E000003C0000200B
:10297000380000205B5D00002D687F1E0DB1002F28
:10298000FADC0DB9BDE8F0812868206068686060F5
:10299000206808B120684460B068A84201D1B460E2
:1029A00001E0606804600020686028602846FEF747
:1029B000A5FF00BFE6E72DE9F04105460E461746A4
:1029C0004FF00008AC6802E008F1010824682CB15F
:1029D0003146206AFEF733FF0028F5D144B1304676
:1029E000FEF753FF38623A4641462846FFF7B6FFE6
:1029F000BDE8F08110B5FEF774FF04460CB102206B
:102A0000E060204610BD10B5FEF76BFF04460CB128
:102A10000120E060204610BD10B5FEF762FF0446BD
:102A20000CB10020E060204610BD70B50546FEF7F1
:102A300058FF044624B10DB1012000E00020E06001
:102A4000204670BD70B505460E46FEF74AFF0446A7
:102A500044B10320E060C4E906562846314600F040
:102A6000B0FB6061204670BD70B50546FEF739FFCA
:102A700004462CB10420E0602846FEF706FF2061E2
:102A8000204670BD10B5FEF72CFF04460CB10520A2
:102A9000E060204610BD10B5FEF723FF04460CB1E0
:102AA0000620E060204610BD2DE9F05F81468A4691
:102AB0000025AB46FFF7E6FF0646002410E059F874
:102AC000240000F06DFB0746FFF7BCFF05460CB97C
:102AD000B56003E029465846FFF78EFEAB46641CFE
:102AE0000EB15445EBDB3046BDE8F09F2DE9F05FB9
:102AF00081468A460025AB46FFF7C4FF0646002400
:102B000010E059F8240000F07BFB0746FFF79AFF1E
:102B100005460CB9B56003E029465846FFF76CFE40
:102B2000AB46641C0EB15445EBDB3046BDE8F09F6C
:102B30002DE9F047074688460025A946FFF7A2FF82
:102B40000646002410E007EBC400D0E9002110463F
:102B5000FFF778FF05460CB9B56003E02946484603
:102B6000FFF74AFEA946641C0EB14445EBDB304634
:102B7000BDE8F0872DE9F047074688460025A946BD
:102B8000FFF780FF064600240DE057F82400FFF70A
:102B90006BFF05460CB9B56003E029464846FFF7D0
:102BA0002BFEA946641C0EB14445EEDB3046BDE861
:102BB000F0872DE9F047054689464FF0000815B922
:102BC0000020BDE8F087FEF78CFE04460CB900201B
:102BD000F7E7E86820F48070E06068696061D5E933
:102BE0000601C4E90601286950B12869FEF74DFEC7
:102BF0002061206920B92046FEF780FE0020E0E732
:102C0000286A50B1286AFEF740FE2062206A20B987
:102C10002046FEF773FE0020D3E7B9F1000F01D183
:102C20002046CEE7AF6816E001213846FFF7C1FF26
:102C3000064626B92046FEF761FE0020C1E7B8F13E
:102C4000000F05D0C8F80060C6F80480B04601E067
:102C5000A660B0463F68002FE6D12046B1E70146A6
:102C600055E00278202A01D1401C50E00278092A60
:102C700001D1401C4BE002780D2A01D1401C46E0F6
:102C800002780A2A01D1401C41E002782F2A0BD198
:102C900042782F2A08D100E0401C0278002A36D062
:102CA00002780A2A33D0F7E702782F2A0ED1427829
:102CB0002A2A0BD100E0401C02782AB102782A2A85
:102CC000F9D142782F2AF6D1801C20E00278222AFE
:102CD00019D110F8012B01F8012B0AE002785C2AC7
:102CE00003D110F8012B01F8012B10F8012B01F88A
:102CF000012B027812B10278222AEFD110F8012BB1
:102D000001F8012B03E010F8012B01F8012B0278E8
:102D1000002AA6D10A70704770B503460C4603E03E
:102D200014F8015B03F8015B1500A2F10102F7D171
:102D300070BD30B5034601E003F8011B1400A2F199
:102D40000102F9D130BD00B557494FF48062C8681F
:102D50000021FFF7EEFF54494FF4804288680021BC
:102D6000FFF7E7FF01205049087400BD0022002151
:102D700006E04D48C06830F8110000B1521C491CF3
:102D8000B1F5007FF5D364205043C0F3472070476E
:102D90002DE9F04106460024A0464348007C10B9C6
:102DA0004149086880471EB94FF0FF30BDE8F08107
:102DB000C6F34F1516F01F0F01D0681C85B240F204
:102DC000FF141AE03848C06830F8140020B908F140
:102DD00001001FFA80F801E04FF00008A8450BD170
:102DE000002705E03048C068E11920F811507F1C29
:102DF000AF42F7D36001D9E7641E002CE2DA4FF04E
:102E0000FF30D3E770B505462748007C20B9264936
:102E100008688047012070BDB5F5804F11D269095F
:102E20002148C06830F81120002406E000201E4B25
:102E3000DB680E1923F81600641C9442F6DB0020B0
:102E4000E9E70220E7E770B5044604B970BD16480B
:102E50008068251A2846FFF7D5FF00BFF6E770B552
:102E600005462846FFF794FF0446601C00D170BD5C
:102E70000D4880682044FAE770B506460C462046A7
:102E8000FFF786FF0546681C00D170BD06498968BA
:102E9000481922463146FFF73FFF3046FFF7D3FF80
:102EA000014880682844F0E744000020A0F1410177
:102EB000192900D82030704740EA01039B0703D04E
:102EC00009E008C9121F08C0042AFAD203E011F869
:102ED000013B00F8013B521EF9D27047D2B201E02B
:102EE00000F8012B491EFBD270470022F6E710B50F
:102EF00013460A4604461946FFF7F0FF204610BD68
:102F0000CAB2401E10F8011F8A4202D00029F9D12E
:102F100000207047421C10F8011B0029FBD1801AC9
:102F2000704710B5002200E0521C835C8C5CA34209
:102F300001D1002BF8D1D8B2E1B2401A10BD03463E
:102F400011F8012B00F8012B002AF9D1184670471F
:102F500030B505460020034600E05B1C934205D2D5
:102F6000EC5CC85C201A01D1002CF6D130BD2DE9F3
:102F7000FE4F804681EA0300C00F0C46009021F00E
:102F8000004123F00045B8EB0200A94105D24046BC
:102F9000214690461C460B46024623F00040104353
:102FA00004D14046214603B0BDE8F08F270DC7F39A
:102FB0000A00C3F30A510290401A0190402866DAD1
:102FC000C3F3130040F4801B0098924620B1002305
:102FD000D2EB030A63EB0B0B01985946C0F1400298
:102FE000504600F090F906460D4650465946019A63
:102FF00000F0A8F910EB08006141002487EA1152A3
:1030000084EAE7731A433BD0009A3AB3019A012A43
:103010004FEA075210DC001B61EB02014FF0004247
:1030200002EA0752CDE90042001C41F58011324608
:103030002B4600F0A6F9B6E7001B61EB0201001C6D
:1030400041F5801300185B412018A2F5001747EBEB
:10305000030140EAD570B6196D4111E06D084FEAE1
:10306000360645EAC0754FEA0752001B61EB0201C4
:10307000001C41F5801149084FEA30000019514108
:1030800032462B4603B0BDE8F04F00F06DB9009812
:10309000012240000023D0EB020263EBE0730098B2
:1030A00021464FEAE074B8EB000061EB0401E9E768
:1030B00083F000435BE781F0004158E72DE9FE4FC4
:1030C00081EA030404F0004421F0004100944FF031
:1030D000000B23F0004350EA010402D052EA03043B
:1030E00004D10020014603B0BDE8F08FC3F30A54B9
:1030F000C1F30A552C44A4F2F3340194A0FB02540A
:10310000C1F3130141F48011C3F3130343F480139B
:1031100001FB024400FB034E840A970A44EA8154EF
:1031200047EA8357A4FB076802958D0A05FB0785CC
:103130004FEA932C04FB0C542705029D4FEA0658D6
:1031400047EA1637B5EB08056EEB070C870E920EB3
:1031500047EA811742EA8312A7FB0201B6EB0B0193
:1031600064EB00042B0D43EA0C335E1844EB1C5057
:10317000DA465146E7FB0201C5F313044FEA0B336D
:1031800043EA14534FEA0432019C43EA0603A4F1D4
:103190000C040294009CCDE900B400F0F2F8A2E720
:1031A0000EB5C10F80EAE0700844CA07002140F262
:1031B00033438DE80E000A460B4600F0E2F803B0F8
:1031C00000BD70B5C1F30A5201F000450024C1F3FF
:1031D000130140F2FF3341F480119A4201DA0020DA
:1031E00070BD40F233439A42A2F2334203DC5242B2
:1031F00000F098F800E090402C43F1D0404270BDC0
:1032000000F0004230F000400AD0C10D01F56071BD
:10321000C0F3160042EA0151C2084007114370474B
:10322000002001467047000030B5002904DB4FF054
:103230000044404264EB0101002B04DB4FF00044EA
:10324000524264EB03038B4208BF824230BD000050
:1032500030B5002904DB4FF00044404264EB01012B
:10326000002B04DB4FF00044524264EB030399420D
:1032700008BF904230BD000030B50B46014600202B
:103280002022012409E021FA02F59D4205D303FA28
:1032900002F5491B04FA02F52844151EA2F10102A9
:1032A000F1DC30BD2DE9F05F0546002092469B46DB
:1032B00088460646814640241BE02846414647464C
:1032C000224600F02FF853465A46C01A914110D3B7
:1032D00011461846224600F016F82D1A67EB010831
:1032E0004F4622460120002100F00DF817EB00099F
:1032F0004E41201EA4F10104DFDC484631462A4637
:103300004346BDE8F09F202A04DB203A00FA02F190
:10331000002070479140C2F1200320FA03F31943C3
:1033200090407047202A04DB203A21FA02F0002165
:10333000704721FA02F3D040C2F1200291400843C5
:1033400019467047202A06DBCB17203A41FA02F0D3
:1033500043EAE07306E041FA02F3D040C2F12002F2
:10336000914008431946704710B5002B08DA401CFD
:1033700041F1000192185B411A4301D120F0010094
:1033800010BD2DE9F04D92469B4611B1B1FA81F284
:1033900002E0B0FA80F220329046FFF7B4FF044614
:1033A0000F4640EA0A0041EA0B0153465A460843D9
:1033B00003D120463946BDE8F08D114653EA01009D
:1033C00015D0C8F140025046FFF7ACFF05460E4647
:1033D000504659464246FFF796FF084301D0012068
:1033E00000E00020054346EAE0762C4337430A9884
:1033F0004FEA4453A0EB08004FEAD4240A304FF0C0
:10340000000244EA47544FEAD72502D5002001467E
:10341000D1E7010510196941DDE908450019694145
:10342000BDE8F04DA0E72DE9F04D81EA030404F07A
:10343000004B21F0004514464FF0000A23F00041F4
:1034400050EA050220D054EA01021DD0C5F30A5704
:103450000246C5F31303C1F31300C1F30A5640F447
:10346000801543F48013A7EB0608101BD64608F21C
:10347000FD3873EB050002D308F1010801E0921852
:103480005B41B8F1000F03DA00200146BDE8F08D82
:1034900000204FF48011064684460EE0171B73EBA4
:1034A000050705D3121B63EB050306434CEA010C29
:1034B00049084FEA300092185B4150EA0107EDD10C
:1034C00052EA030012D082EA040083EA05010843AD
:1034D00003D100224FF0004308E0101BAB4102D2A1
:1034E0000122002302E06FF0010253101AEB0600E4
:1034F0004CEB085110EB0A0041EB0B01BDE8F04D1D
:10350000FFF732BF70B521F0004303430CD0C1F385
:103510000A550024D5EB040564EB0403D617AD1A55
:10352000B34102DB0020014670BD201841EB02517F
:1035300070BDC1F30A52C1F3130140F2FF3341F4ED
:1035400080119A4202DA00200146704740F233436C
:103550009A42A2F2334202DC5242FFF7E3BEFFF787
:10356000D2BE0000064C074D06E0E06840F00103C3
:1035700094E8070098471034AC42F6D3FCF7DCFD22
:10358000904C0008B04C00082DE9F04D00231A467D
:103590001B1A8A4103DB00200146BDE8F08DC1F310
:1035A0000A52C1F3130141F480154FF0000BD1070B
:1035B00002D100186D41521E0027044640F2FF114F
:1035C000384601EB620A3E468046024600204FF430
:1035D0008011FFF7A7FEC2197141BB1846EB01002D
:1035E000B4EB030C75EB000C04D3E41A65EB000597
:1035F00017460E46241908F101006D418046342813
:10360000E3DDF91946EB0600091BA84103D24FF090
:10361000FF32134601E0002213461BEB070046EB86
:103620000A51BDE8F04DFFF79FBE00000FB4054BF7
:1036300010B503A9044A029800F052F910BC5DF8D5
:1036400014FB0000D3100008580000200FB4084BF2
:1036500010B504A902AA039800F042F9044602A991
:10366000002000F0E0FC204610BC5DF814FB0000D8
:1036700027400008490050EAC12018BF04204A0D25
:1036800018BF40F0010040F2FF72B2EB515F08BF7B
:1036900040F00200012808BF052070472DE9F041E5
:1036A0004F1E00EBC7010446D1E9000115461E4636
:1036B00037F006020DD02A463346FFF7FFFC7F1E87
:1036C00004EBC703D3E90023FFF751FC37F00602F0
:1036D000F1D1022F25D0042F13D0062F18BFBDE83B
:1036E000F0812A463346FFF7E9FCD4E90A23FFF7C5
:1036F0003EFC2A463346FFF7E1FCD4E90823FFF7F6
:1037000036FC2A463346FFF7D9FCD4E90623FFF7F7
:103710002EFC2A463346FFF7D1FCD4E90423FFF7F9
:1037200026FC2A463346FFF7C9FCD4E90223FFF7FB
:103730001EFC2A463346FFF7C1FCD4E90023BDE84E
:10374000F041FFF714BC0000024A00201107FFF708
:10375000D9BE000001FDFFFF02E008C8121F08C12A
:10376000002AFAD170477047002001E001C1121F02
:10377000002AFBD170470000014908607047000033
:10378000640000202DE9FF5FDDE90220010DDDF876
:1037900038B0024310D10F9801244CA2012808D060
:1037A000002100980F9BC0E90021C0E90243BDE859
:1037B000FF9F6FEA0B01F4E7A1F2FF3144F61050CE
:1037C00041430D140F9801280ED0A5EB0B00401CAF
:1037D0004FF000043E4EDFF8FC90B0F1000AA04626
:1037E00005DACAF1000717E0CBF10000F0E7074661
:1037F00012E0F80707D02246334640464946FFF715
:103800005DFC804689462246334610461946FFF73E
:1038100055FC04460E467F10002FEAD1DDE9020177
:10382000BAF1000F42464B4602DAFFF747FC01E0CF
:10383000FFF7F9FD04460E460022274BFFF708FD6F
:1038400003D84FF0FF30014607E00022234B20460B
:103850003146FFF78CFBFFF76CFE102409E0002CCB
:103860000ADB0A220023FFF71DFD019B30321A55A7
:10387000641E50EA0102F2D1641C019AC4F11103E2
:1038800014440F9A012A09D00122084301D15B4553
:103890000FDD4FF0000205F101050DE0084303D1F3
:1038A000A3EB0B056D1E09E000204FF0110B0F90EC
:1038B00088E701DA00226D1E002A83D000980F9954
:1038C000C0E90231C0E9004571E7000030000000A6
:1038D000000024400000F03F0000F0430000E03F03
:1038E0002DE9FF4F95B09B4689460646002512E21A
:1038F000252878D10024761CF94A27460121059411
:103900003378203B01FA03F0104202D00443761CC6
:10391000F6E730782A2811D06FF02F033078A0F125
:103920003002092A16D8059A44F0020402EB8202FA
:1039300003EB42021044761C0590EFE759F8042B84
:103940000592002A03DA504244F40054059044F0F2
:103950000204761C30782E2816D116F8010F44F098
:1039600004042A280DD06FF02F023078A0F1300324
:10397000092B09D807EB870302EB4303C718761C12
:10398000F3E759F8047B761C30786C280FD006DCFE
:103990004C2817D068280DD06A2814D104E0742868
:1039A00010D07A280FD10DE044F400140AE044F45A
:1039B000801401E044F440147278824202D1761CF3
:1039C00004F58014761C307866280BD013DC582858
:1039D00077D009DC002875D04528F6D04628F4D0E9
:1039E00047281AD19FE118E0632835D0642879D0A0
:1039F000652812D197E1702873D008DC6728F1D0D0
:103A000069286FD06E280DD06F2806D1B5E07328D5
:103A10002CD0752875D0782874D05A4617999047BD
:103A20006D1C76E1C4F30250022809D003280DD0A2
:103A3000D9F8001004280DD00D6009F1040968E1DF
:103A4000D9F80010EA17C1E90052F6E7D9F80010DA
:103A50000D80F2E70D70F0E719F8041B8DF80010E7
:103A600000208DF80100EA46012003E059F804AB7C
:103A70004FF0FF3061074FF0000102D40DE008F174
:103A800001018846B9420FDA8045F8DB1AF80810C0
:103A90000029F4D108E008F1010188468142FADBEF
:103AA0001AF808100029F6D105985B46A0EB080724
:103AB00021463846179A00F09EFA284400EB080584
:103AC00007E04DE02BE10DE01AF8010B5A4617997B
:103AD0009047B8F10108F7D25B4621463846179A5D
:103AE00014E142E00A220092C4F302524FF0000AAD
:103AF000022A08D059F804CB032A4FEAEC710AD005
:103B00000DE029E02AE009F1070121F00702F2E8BF
:103B100002C1914609E00FFA8CFC4FEAEC71042ACD
:103B200003D14FFA8CFC4FEAEC71002907DA0A4600
:103B30000021DCF1000C61EB02012D2202E02205E4
:103B400004D52B228DF80420012203E0E20701D0E6
:103B50002022F7E7904653E00A2102E010220DE010
:103B600010214FF0000A00910BE010224FF0000AE4
:103B700044F004040827009203E008224FF0000AF2
:103B80000092C4F30252022A05D059F804CB002156
:103B9000032A08D009E009F1070121F00702F2E841
:103BA00002C1914605E01FFA8CFC042A01D10CF0F9
:103BB000FF0C4FF00008220722D5702827D0009B69
:103BC00083F0100353EA0A0309D15CEA010206D02C
:103BD00030228DF804208DF8050002229046009BCB
:103BE00083F0080353EA0A030AD15CEA010201D117
:103BF000620705D530228DF804204FF001087F1EA2
:103C0000582809D037A003900EA8029013E0402254
:103C10008DF804200122E1E737A0F4E7534660461F
:103C2000009AFFF73FFB84460398825C0298A0F15C
:103C30000100029002705CEA0100EFD1029806A92F
:103C4000A1EB000000F1200A600702D524F48034C3
:103C500000E00127574502DDA7EB0A0000E0002045
:103C600000EB0A01009005984144A0EB010005908B
:103C7000E00306D45B462146179A059800F0BBF98D
:103C80000544002706E001A85A46C05D17999047F1
:103C90006D1C7F1C4745F6DBE0030CD55B462146D7
:103CA000179A059800F0A7F9054404E030205A4619
:103CB000179990476D1C0099481E00900029F5DC6B
:103CC00008E0029802995A460078491C0291179917
:103CD00090476D1CBAF10001AAF1010AF1DC6BE119
:103CE00009280100303132333435363738396162D2
:103CF0006364656600000000303132333435363796
:103D000038394142434445460000000000F060F964
:103D1000054406F10106307800287FF4E9AD19B0BA
:103D20002846BDE8F08F620700D4062709F1070294
:103D300022F0070CFCE80223E14603F000485FEAAA
:103D4000080C02D00FF27C2C0DE05FEA045C02D577
:103D50000FF2742C07E05FEAC47C02D00FF26C2CE7
:103D600001E0AFF2700C4FF0FF3823F00043CDF8C4
:103D700050C065280CD006DC452809D046281DD047
:103D800047283ED13EE0662818D0672839D139E06F
:103D90000021112F01DB112000E0781CCDE900018A
:103DA00006A90EA8FFF7EEFCDDE90F010E9A0391BC
:103DB0000021009207F1010A04914EE04FF000400B
:103DC0000097CDE9011006A90EA8FFF7DBFCDDE99D
:103DD0000F0203920E9B11990022DDF80CA00093B4
:103DE000049219B907F1010100EB010AB7EB0A00CF
:103DF00004D4C0F1FF3007F1010A0490AAEB0700D8
:103E0000019046E0012F00DA01270021112F01DD8A
:103E1000112000E03846CDE9000106A90EA8FFF701
:103E2000B1FCDDE90F010E9A03910021049100928B
:103E3000BA4621070CD40399514500DA8A46BAF1F3
:103E4000010F05DD009AAAF10101515C302908D06B
:103E5000B84202DA10F1040F06DA0121CDE90110AF
:103E600017E0AAF10101E9E7002805DC0499014403
:103E70000491AAEB000102E0411C514500DD8A4695
:103E80000499A0EB010000F1010001904FF0004007
:103E90000290200704D40198504501DBCDF804803E
:103EA00000208DF84F0002980DF14F07B0F1004F40
:103EB00025D02B200E9002984FF0020800280CDA33
:103EC000404202902D200E9007E00A210298FFF751
:103ED000D3F93031029007F8011DB8F10001A8F1C3
:103EE0000108F2DC02980028EFD1791E0E980870C4
:103EF000307800F0200040F0450007F8020D12A8CD
:103F0000A0EB070000F107081498007800B1012029
:103F100000EB0A01019801EBE07105984144A0EB28
:103F20000100A0F101000590E00306D45B462146A4
:103F3000179A059800F05FF805441498007820B1AE
:103F40005A461799904705F10105E00323D55B46D2
:103F50002146179A059800F04EF805441BE0049896
:103F6000002807DBDDE90301884203DD0098405C9F
:103F7000179901E0179930205A46904704986D1C14
:103F8000401C04900198401E019004D12E205A46F6
:103F9000179990476D1CBAF10001AAF1010ADEDC05
:103FA00005E017F8010B5A46179990476D1CB8F1B8
:103FB0000001A8F10108F4DC5B462146179A059838
:103FC000A4E600002D0000002B00000020000000EF
:103FD0002DE9F041044600251E461746880405D405
:103FE00006E039462020B04705F10105641EF8D5EA
:103FF0002846BDE8F0812DE9F041044600251E4623
:104000009046C80301D5302700E02027880405D555
:1040100006E041463846B04705F10105641EF8D573
:104020002846BDE8F0810A68531C0B601070704789
:104030002DE9F041C1F30A52A2F2FF362F4A304B6C
:104040000D460446142E2FDA002E12DAFEF78FFFEB
:1040500000221346FFF7FCF84CD2002DA4BF002429
:10406000254647DA25F00040204318BF254D41D0B2
:1040700018E0DFF894C02CFA06F705EA070C5CEAB2
:10408000040C08BFBDE8F081FEF771FF0022134663
:10409000FFF7DEF82ED2002D03DA4FF48010F04047
:1040A0000544BD43002425E0332EC8BFBDE8F081A0
:1040B000A6F1140C4FF0FF3727FA0CF73C4208BF6B
:1040C000BDE8F081FEF7F7FF00221346FFF7C0F8C6
:1040D00010D2002D0DDA142E08BF6D1C09D0C6F1C8
:1040E0003400012101FA00F02044A04238BF6D1CC9
:1040F0000446BC4329462046BDE8F0819C750088F3
:104100003CE4377E0000F0BFFFFF0F0010B5002831
:1041100021D0114B001F0022196803E0814203D80F
:104120000A4649680029F9D152B11368841A9C42A1
:1041300004D1006818441060104602E0506000E0AE
:10414000186039B102680B1A934203D10B681A4404
:1041500002604968416010BD5C000020F0B50B3082
:10416000154D20F007010024144A0FE003688B422C
:104170000BD38B4205D95E1A43184768C3E9006721
:1041800000E04368136002C004E0021D10680028CC
:10419000ECD12046002802D1286808B10020F0BDEB
:1041A000064A07481060074A121A22F00702C0E9BF
:1041B000002401202860D7E7600000205C00002078
:1041C0001C490020184B00202DE9F04D16460F46E3
:1041D0000546020094B01C4621F0004123F0004047
:1041E00014BF4FF0010C4FF0000C0CEB470CFE4BD2
:1041F0000CEB03084FEA630CE0452DD35FEA060899
:1042000018BF4FF0010808EB44089844F74B984555
:1042100022D3F74B50EA060C02D09F4205D14AB98F
:1042200014B000201946BDE8F08D002A08BF4FF0F9
:10423000000C01D04FF0010C0CEB470313F5001FED
:104240000AD8002E14BF4FF0010C4FF0000C0CEBFD
:10425000440313F5001F08D914B0324623462846FC
:104260003946BDE8F04DFEF782BEDFF888B34FF067
:10427000000A002FB8BF584523DADF4B9842A8BF89
:104280004FF0020A1DDADA4B83421ADCDB4B03EBF8
:104290002053142B08DDC3F1340C26FA0CF303FA77
:1042A0000CFCB4450DD108E05EB9C3F1140C20FA42
:1042B0000CF303FA0CFC844503D103F00103C3F1B2
:1042C000020A51EA020321D1002C1FDA002F18BF85
:1042D000BAF1020F02D0BAF1010F0BD00220FFF7A2
:1042E0004BFA14B00022BDE8F04D13461046C04909
:1042F000FFF799B80220FFF73FFA14B02A463B4671
:10430000BDE8F04D0020BA49FFF78DB833006DD1FC
:10431000584525D107F1804010F5801001BF002AD3
:104320000020B34914B008BFBDE8F08DB048884202
:1043300007DC002CA1BF1846214614B0BDE8F08D63
:1043400007E0002CBFBF184684F0004114B0BDE860
:10435000F08DAB497944D1E9000114B0BDE8F08D8E
:10436000DFF88CC2604526D1002C1FDA19B15945FF
:1043700013D1DAB90AE0002A40F0DA829D4A3946C0
:1043800014B0002062F31E01BDE8F08D0020394614
:1043900014B060F31E01BDE8F08D07DA14B03B469F
:1043A000BDE8F04D00206146FFF73DB814B010465F
:1043B0003946BDE8F08D594518DAB4F1804F0DD07B
:1043C000A4F10053B3F1FF5310D13B1E0EDB14B028
:1043D0001046BDE8F04D194600F0E6BB3B4614B070
:1043E0001046BDE8F04D1946FEF768BE27F00043C1
:1043F000A2BBE1B1594538D1002F06DD002CA1BF89
:104400000020594614B0BDE8F08D002F01DD002CCE
:104410001FDB002F16DA002C14DBBAF1010F4FF06E
:10442000000014BF7349774914B0BDE8F08DBAF1AC
:10443000020F18BF002F0CD0BAF1010F09D1002FC5
:1044400007DA0CE0002FB8BF002C0EDABAF1010F2A
:1044500005D0002014B00146BDE8F08D05E014B091
:1044600000204FF00041BDE8F08D4FF0010C0CEB47
:10447000E7720D9252EA0A020BD0634A90427DDD48
:10448000624B634A984216DD8A420EDB002C1CDB2D
:104490002CE00120FFF770F914B00022BDE8F04DC8
:1044A000134610461146FEF7BEBF5148884202DC53
:1044B000002C0ADC1AE0914202DA002C16DA04E041
:1044C0004B4B99421EDD002C10DD0220FFF754F902
:1044D00040F2013200204FF0E041FFF713F8454A67
:1044E00014B061F31E021146BDE8F08D0220FFF703
:1044F00043F9FFF729F93E4A14B061F31E02114651
:10450000BDE8F08D002228463946FEF7D1FD05466C
:1045100088466FF00102FEF7F5FF4FF055323D4B34
:10452000FEF7C9FD2A464346FEF7C8FD00223A4B76
:10453000FEF7C1FD07468B462A46434610461946FC
:10454000FEF7BCFD3A465B46FEF7B8FD09910C90BC
:104550004FF0C042314B28464146FEF7AFFD0746BB
:104560008B462F4A2D4B09990C98FEF7A7FDCDE9F4
:1045700001102C4A2C4B2846414600E019E0FEF77A
:104580009DFDDDE90132FEF793FD3A465B4605915C
:104590000890FEF7ECFC002588463A465B46284624
:1045A000FEF786FD059B089AFEF785FD024600F0A2
:1045B00076B90020B1F5801F07DA35222846194662
:1045C000FEF7A0FF05466FF0340000EB2150A0F28B
:1045D000FF300190C1F3130040F07F6141F0405182
:1045E00002911249884223E0FFFF1F00FFFF0F00E6
:1045F0000000F03F0000F07F0000404301FCFFFF9F
:10460000300900000000F0FF0000E0410000F0432E
:10461000FFFFEF3F5555D53F0000E03F4715F73FFF
:10462000FE822B6544DF5DF80BAE543E8E9803008E
:10463000D8BF4FF0000B0EDDFE498142C8BF4FF0DE
:10464000010B08DC01984FF0000B401C0190029810
:10465000A0F580100290F8480299784400EBCB0056
:104660000B911090D0E900232846FEF721FD009021
:1046700010980791D0E9002328460B99FEF777FCA4
:1046800002460B460020ED49FEF7CDFE05910B4694
:104690000246089007990098FEF710FD0690E8483A
:1046A000884600277844029900680E904FF0005029
:1046B00040EA610000EB8B4000F500211098029168
:1046C000D0E900230E98FEF7F3FC2A460B9BFEF779
:1046D000F2FC3A464346FEF7F1FC05460B9138469C
:1046E0004146029B0E9AFEF7E9FC079B009AFEF7F3
:1046F000E2FC2A460B9BFEF7DBFC059B089AFEF7C3
:10470000DDFC0B911090069A434610461946FEF7C1
:10471000D5FC05460246CB480B460091062178445D
:10472000FEF7BCFF009B2A460291089010461946EE
:10473000FEF7C4FC029B089AFEF7C0FC05460591F3
:10474000434638461946069AFEF711FC0B9B109A11
:10475000FEF7B4FC2A46059BFEF709FC3A464346A1
:104760000591089010461946FEF7A8FC0022B64BAA
:1047700000910C90FEF7FBFB059B089AFEF7F7FBF8
:104780000D463A46B04B3846FEF792FC009B0C9A19
:10479000FEF78EFC059B089AFEF78DFC11913A46B8
:1047A0000C902B4610464146FEF788FC079100907E
:1047B0004346069A11990C98FEF780FC80460391B7
:1047C0002B463A460B991098FEF778FC4246039B1D
:1047D000FEF7CDFB059180460B46024607990098EF
:1047E000FEF7C5FB00200F460546079B009AFEF723
:1047F0005FFC4246059BFEF75EFC804609914FF048
:104800006042924B28463946FEF758FC00910290D0
:104810008F4A8E4B40460999FEF750FC8046039123
:104820008C4A8D4B28463946FEF748FC4246039B8E
:10483000FEF79DFB894A7A4402EBCB03D3E90023C0
:10484000FEF795FB069003910198FEF7A9FC074639
:10485000DDE902030591069A0099FEF788FB804A7C
:104860007A4402EBCB0BDBE90023FEF780FB3A46F0
:10487000059BFEF77CFB002588463A462846059BAB
:10488000FEF716FCDBE90023FEF712FC009B029A00
:10489000FEF70EFC039B069AFEF70DFC0246002075
:1048A00006900D98654FAAF10103184301D16D4F91
:1048B000069000200B46009030462146FEF7FEFB96
:1048C00082468B46234630461946009AFEF7F0FB97
:1048D0002A464346FEF7F2FB52465B46FEF747FB8D
:1048E00006468A462A46434621460098FEF7E6FBDE
:1048F00004460D4632465346FEF739FB5A4A8B466C
:10490000914226DBABEB020353EA000210D12246B0
:104910002B46FEF7CDFB80460591544A544B30465A
:104920005146FEF724FB4246059BFEF791FC30D230
:104930000220FEF721FF40F2013200204FF0E0415B
:10494000FEF7E0FD0A46394614B062F31E01BDE8E9
:10495000F08D484B2BF000429A421AD3464A0BEB9B
:10496000020353EA000208D122462B46FEF7A0FBC1
:1049700032465346FEF76CFC0BD80220FEF7FCFED5
:10498000FEF7E2FE0A46394614B062F31E01BDE8A6
:10499000F08D2BF000403949394A01EB20514FF09E
:1049A0000008824223DA481C4FF4801121FA00F0FB
:1049B0005844C0F30A51334AA1F2FF317A44324BD2
:1049C0001268CB4020EA0303C0F3130040F4801CBC
:1049D000C1F114002CFA00F8BBF1000FB8BFC8F108
:1049E000000820462946FEF763FB04460D46224692
:1049F0002B4630465146FEF7BAFA4FF0000B5A46A6
:104A0000224B58460591FEF759FB00900791204A2A
:104A1000204B58460599FEF751FB0491029022461F
:104A20002B4658460599FEF743FB32465346FEF7A0
:104A300042FB31E07AB60B00A20500000000F03F17
:104A4000E00500000E0500000000084009C7EE3F29
:104A5000FD033ADCF5015B14E02F3EBEE6030000E7
:104A6000AC0300000000F0BF00009040FE822B6508
:104A70004715973C00CC904000346F3F01FCFFFF8E
:104A80000000E03FC8020000FFFF0F00432EE63F9A
:104A9000396CA80C615C20BE3F4A404BFEF70EFB10
:104AA000049B029AFEF763FA06468A46079B009A21
:104AB000FEF75DFA04460D46079B009AFEF7F8FAEA
:104AC00032465346FEF7F7FA064622462B46099130
:104AD00010461946FEF7F2FA8346024630488A46E7
:104AE0000B4605217844FEF7D9FD5A465346FEF79A
:104AF000E5FA22462B46FEF7DEFA82468B46324620
:104B000020462946099BFEF7D9FA3246099BFEF753
:104B10002EFA0591089000224FF0804350465946E6
:104B2000FEF7C6FA0646009152465B4620462946E5
:104B3000FEF7C4FA3246009BFEF775FC059B089A07
:104B4000FEF7B6FA22462B46FEF7B2FA0022154BC4
:104B5000FEF7B1FA0D46044601EB0851081500288E
:104B600010DC424620462946FEF7CCFCFEF782FDCB
:104B7000042808BFFEF7E8FD424620462946FEF716
:104B8000C1FC044606980B4614B022463946BDE8DF
:104B9000F04DFEF793BA0000EF39FAFE422EE63FE1
:104BA000780100000000F03F2DE9F04106460F4675
:104BB000FEF7EAFC04000D4618BF0120284320F050
:104BC0000040C0F17F6000F1E040C00F0ED0301C0B
:104BD00018BF0120384320F00040C0F17F6000F191
:104BE000E040C00F04BF0120FEF7C6FD2046294665
:104BF000BDE8F0810000C0E0F0F8FC00000000001B
:104C0000000000000000F03F000000000000F83F3E
:104C100000000000000000000000004003B8E23F78
:104C2000000000000000000006D0CF43EBFD4C3E2A
:104C3000033333333333E33FFFAB6FDBB66DDB3F1F
:104C40004D268F515555D53F01411DA96074D13F67
:104C500065DBC9934A86CD3FEF4E454A287ECA3F61
:104C60003E5555555555C53F93BDBE166CC166BFE3
:104C70002CDE25AF6A56113FF16BD2C541BDBBBEDC
:104C8000D0A4BE726937663E00000000000000003C
:104C9000B04C0008000000206800000058370008F1
:104CA000184D000868000020B04E0000683700086A
:104CB00000A24A04000000000000000001020304FA
:104CC00006070809000000000102030401020304B2
:104CD00006070809020406080000000000000000A2
:104CE00000000000000000005F2E0008472E0008B2
:104CF00000000000472D00086D2D00081805002059
:104D00001845002000000000000000000000000026
:084D100000000000000000009B
:0400000508000131BD
:00000001FF
