:020000040800F2
:100000006809002045010008610F0008630F00081F
:10001000670F00086B0F00086F0F0008000000005A
:10002000000000000000000000000000730F000846
:10003000750F000800000000770F0008790F000816
:100040005F0100085F0100085F0100085F01000810
:100050005F0100085F0100085F0100085F01000800
:100060005F0100085F0100085F0100085F010008F0
:100070005F0100085F0100085F0100085F010008E0
:100080005F0100085F0100085F0100085F010008D0
:100090005F0100085F0100085F0100085F010008C0
:1000A0005F0100085F0100085F0100085F010008B0
:1000B0005F0100085F0100085F0100085F010008A0
:1000C0005F0100085F0100085F0100085F01000890
:1000D0005F0100087B0F00085F0100085F01000856
:1000E0005F0100085F0100085F0100085F01000870
:1000F0005F0100085F0100085F0100085F01000860
:100100005F0100085F0100085F0100085F0100084F
:100110005F0100085F0100085F0100085F0100083F
:100120005F0100085F0100085F0100085F0100082F
:10013000DFF80CD001F028FA00480047250F00082E
:10014000680900200648804706480047FEE7FEE7AA
:10015000FEE7FEE7FEE7FEE7FEE7FEE7FEE7FEE777
:1001600045020008310100080CB500200190009004
:100170006B48006840F480306949086000BF6848F7
:10018000006800F4003000900198401C0190009835
:1001900018B90198B0F5A06FF1D16148006810F46A
:1001A000003F02D00120009001E000200090009864
:1001B000012842D15B48006840F0100059490860AE
:1001C0000846006820F0030008600846006840F018
:1001D000020008605248406851494860084640683B
:1001E00048600846406840F48060486008464068BF
:1001F00020F47C1048600846406840F4E8104860ED
:100200000846006840F08070086000BF44480068FD
:1002100010F0007FFAD04248406820F003004049C7
:1002200048600846406840F00200486000BF3C4813
:10023000406800F00C000828F9D10CBD10B5FFF79C
:1002400093FF10BD10B53648006840F001003449F6
:10025000086008464068344908403149486008460B
:100260000068324908402E4908600846006820F4BA
:10027000802008600846406820F4FE0048604FF483
:100280001F008860FFF7DAFF4FF000602849086020
:1002900010BD10B5002100200022214B5B6803F047
:1002A0000C0121B1042906D0082928D107E0214BEF
:1002B000214C236027E01F4B1F4C236023E0184B89
:1002C0005B6803F47010164B5B6803F48032022302
:1002D00003EB904022B9194B4343174C23600DE0C8
:1002E0000F4B5B6813F4003F04D0144B4343124C94
:1002F000236003E00F4B43430F4C236003E00D4B9F
:100300000D4C236000BF00BF054B5B68C3F30313B4
:100310000B4CE15C084B1B68CB40074C236010BDC5
:1003200000100240002002400000FFF8FFFFF6FE30
:1003300008ED00E000127A000000002000093D00F6
:100340000400002031490143314A1160704770B503
:10035000002100230F22C4780CB32D4C246804F430
:10036000E064C4F5E064210AC1F10403CA404478A2
:1003700004FA03F18478144021430901254C0678DE
:10038000A155047804F01F050124AC4005786D11D7
:100390004FF0E02606EB8505C5F8004109E004783A
:1003A00004F01F050124AC401B4D0678761145F87A
:1003B000264070BD194A0A400243154B1B1F1A60A4
:1003C000704739B1124A121D12680243104B1B1DAF
:1003D0001A6006E00E4A121D126882430C4B1B1D68
:1003E0001A607047042808D14FF0E021096941F0F4
:1003F00004014FF0E022116107E04FF0E0210969AC
:1004000021F004014FF0E022116170470000FA056D
:100410000CED00E000E400E080E100E080FFFF1F61
:1004200010B50446CA48844208D10121042000F0D6
:1004300027FB0021042000F023FB46E0C54884424E
:1004400008D10121082000F01BFB0021082000F04A
:1004500017FB3AE0C048844208D10121102000F087
:100460000FFB0021102000F00BFB2EE0BB48844264
:1004700008D10121202000F003FB0021202000F002
:10048000FFFA22E0B648844208D10121402000F062
:10049000F7FA0021402000F0F3FA16E0B148844258
:1004A00008D10121802000F0EBFA0021802000F02B
:1004B000E7FA0AE0AC48844207D10121801500F038
:1004C000DFFA0021A01500F0DBFA10BD10B5012104
:1004D000084600F0D5FA0021012000F0D1FA10BD45
:1004E0002DE9F041024600250026002000230024CB
:1004F000002791F803C00CF00F0591F803C01CF021
:10050000100F03D091F802C04CEA050591F800C025
:10051000BCF1000F31D0146800202BE04FF0010C2B
:100520000CFA00F3B1F800C00CEA03069E4220D199
:1005300083004FF00F0C0CFA03F7BC4305FA03FCE1
:100540004CEA040491F803C0BCF1280F06D14FF027
:10055000010C0CFA00FCC2F814C00AE091F803C0C8
:10056000BCF1480F05D14FF0010C0CFA00FCC2F8A9
:1005700010C0401C0828D1D31460B1F800C0BCF1F1
:10058000FF0F34DD546800202EE000F1080C4FF01E
:10059000010808FA0CF3B1F800C00CEA03069E4209
:1005A00021D183004FF00F0C0CFA03F7BC4305FA7E
:1005B00003FC4CEA040491F803C0BCF1280F05D1F8
:1005C00000F1080C08FA0CF8C2F8148091F803C086
:1005D000BCF1480F07D100F1080C4FF0010808FAF0
:1005E0000CF8C2F81080401C0828CED35460BDE837
:1005F000F0814FF6FF710180022181700421C170EA
:1006000070470246002093680B4201D0012000E0B1
:10061000002070470146886880B27047024600207B
:10062000D3680B4201D0012000E000207047014652
:10063000C86880B2704701617047416170470AB174
:10064000016100E041617047C16070474FF4803242
:100650000A438261816182618269826970470246D0
:100660000020424B18684FF68073184040EA021091
:1006700008433E4B186070473D49C8617047F0B56C
:100680000A46002300240021002500F00046B6F1B0
:10069000004F02D1354EF16901E0344E7168C0F36C
:1006A000034583B200F44016B6F5401F08D121F08F
:1006B00070612E4E766826F070662C4F7E6012E0D8
:1006C00000F48016B6F5801F06D1032606FA05F45D
:1006D000A14341F0706106E0460D360103FA06F6CB
:1006E000B14341F0706122B1460D360103FA06F6BE
:1006F000314300F00046B6F1004F02D11B4EF161CC
:1007000001E01A4E7160F0BD30B500228B071C0F5E
:100710000F2303FA04F2154B08338C1053F82430DE
:100720009343124C08348D1044F8253023468C1026
:1007300053F824308C07240F00FA04F423430B4CA5
:1007400008348D1044F8253030BD0A4908607047E0
:1007500000080140000C014000100140001401405D
:1007600000180140001C0140002001400000014031
:1007700000002042DC002042DD48006840F001001B
:10078000DB49086008464068DA490840D8494860B3
:1007900008460068D8490840D549086008460068FE
:1007A00020F4802008600846406820F4FE0048607D
:1007B0004FF41F0088607047CD49096821F48031EB
:1007C000CB4A11601146096821F480211160B0F50F
:1007D000803F03D0B0F5802F0ED106E0C4490968F0
:1007E00041F48031C24A116007E0C149096841F40F
:1007F000A021BF4A116000E000BF00BF704710B5E4
:1008000001460022002300204A11012A02D1B84CDF
:10081000236806E0022A02D1B54C236A01E0B44CF9
:10082000636A01F01F02012494401C4201D00120A0
:1008300000E0002010BD38B5002000900024002505
:1008400000BF3120FFF7DBFF05460098401C0090F9
:100850000098B0F5A06F01D0002DF2D03120FFF745
:10086000CEFF08B1012400E00024204638BD014637
:1008700000209F4A106820F0F80040EAC100106094
:1008800070479E490860704702460020984B5868A0
:1008900020F47C1042EA01031843954B58607047DE
:1008A00096490866704701460020914A506820F03A
:1008B00003000843506070478D48406800F00C000A
:1008C0007047014600208A4A506820F0F000084333
:1008D0005060704701460020854A506820F4E0606F
:1008E00008435060704701460020814A506820F458
:1008F000605040EAC1005060704729B17C4A527A8A
:1009000002437B4B5A7204E0794A527A8243784B15
:100910005A7270477A490860704701460020744A4D
:10092000506820F440400843506070470021754AE9
:1009300011706F4A82F82010012802D0042808D1D3
:1009400003E001216F4A117004E005216D4A117026
:1009500000E000BF00BF70476B4908607047644902
:10096000096A0143624A1162704767494439086065
:10097000704730B500210022002400235C4D6D68D3
:1009800005F00C0121B1042905D0082923D105E087
:100990005E4D056022E05D4D05601FE0544D6D68C1
:1009A00005F47012524D6D6805F48034022505EB94
:1009B00092421CB9564D554305600BE04C4D6D6895
:1009C00015F4003F03D0524D5543056002E04F4DF2
:1009D0005543056002E04D4D056000BF00BF444D2A
:1009E0006D6805F0F00109094A4D6B5C0568DD4052
:1009F00045603F4D6D6805F4E061090A454D6B5C4B
:100A00004568DD4085603A4D6D6805F46051C90A5E
:100A1000404D6B5C4568DD40C560354D6D6805F443
:100A20004041890B3C4D6B5CC568B5FBF3F5056136
:100A300030BD29B12E4A526902432D4B5A6104E060
:100A40002B4A526982432A4B5A61704729B1284A7E
:100A500092690243264B9A6104E0254A92698243D7
:100A6000234B9A61704729B1214AD2690243204B36
:100A7000DA6104E01E4AD26982431D4BDA61704795
:100A800029B11B4AD2680243194BDA6004E0184AC4
:100A9000D2688243164BDA60704729B1144A126952
:100AA0000243134B1A6104E0114A12698243104B4E
:100AB0001A61704714494039086070470F49C8648B
:100AC00070470B49C87170470948406A40F0807010
:100AD00007494862704701460020054A92680A4269
:100AE00001D0012000E00020704701498872704762
:100AF000001002400000FFF8FFFFF6FE0000424237
:100B0000D8004242201002408004424200127A0083
:100B100000093D00140000202400002010B5044608
:100B2000FB48844209D101218803FFF7A9FF002176
:100B30004FF48040FFF7A4FF32E0F648844209D129
:100B400001214804FFF7A9FF00214FF40030FFF70F
:100B5000A4FF25E0F048844209D101218804FFF771
:100B60009CFF00214FF48020FFF797FF18E0EB482F
:100B7000844209D10121C804FFF78FFF00214FF4FF
:100B80000020FFF78AFF0BE0E548844208D10121ED
:100B90000805FFF782FF00214FF48010FFF77DFF6B
:100BA00010BD2DE9F04786B005460E460024A2464A
:100BB00000BFA1460027B08900B100BF2F462C8A94
:100BC0004CF6FF700440F08804432C82AC894EF64A
:100BD000F3100440B0883189084371890843044305
:100BE000AC81AC8A4FF6FF400440B0890443AC822C
:100BF00001A8FFF7BEFEC648874202D1DDF810A06B
:100C000001E0DDF80CA0A88910F4004F08D00AEB31
:100C1000CA0000EB0A1031684900B0FBF1F807E0A8
:100C20000AEBCA0000EB0A1031688900B0FBF1F84A
:100C30006420B8FBF0F004012009642101FB108955
:100C4000A88910F4004F08D0322000EBC900B0FB97
:100C5000F1F000F00700044308E0322000EB091037
:100C60006421B0FBF1F000F00F0004432C8106B0CA
:100C7000BDE8F0874FF41651016000218180C180EA
:100C800001810C21418100218181704710B502460C
:100C90000020108A4FF2FF0318400B884C88234332
:100CA0008C882343CC8823431843108210BD002135
:100CB000018041808180C180704721B1828942F4E6
:100CC0000052828104E082894DF6FF731A408281CE
:100CD0007047F0B503460024002600250020A1F54A
:100CE00010676A3F00D100BF1846C1F3421401F0FB
:100CF0001F06012707FA06F5012C01D10C3004E08C
:100D0000022C01D1103000E014301AB107682F43D3
:100D1000076002E00768AF430760F0BD1AB1838A3D
:100D20000B43838202E0838A8B4383827047028A6B
:100D30004FF6F0731A400282028A0A430282704719
:100D400082894FF2FF731A40828182890A4382812D
:100D5000704721B1828942F00202828104E08289D7
:100D60004FF6FD731A4082817047028A4FF6DF7397
:100D70001A400282028A0A430282704721B1028A23
:100D800042F48042028204E0028A4BF6FF731A406A
:100D900002827047C1F3080282807047014688884A
:100DA000C0F308007047818941F0010181817047DB
:100DB000028BD2B20283028B42EA01220283704785
:100DC000028B02F47F420283028B0A430283704744
:100DD00021B1828A42F02002828204E0828A4FF6A8
:100DE000DF731A408282704721B1828A42F010027A
:100DF000828204E0828A4FF6EF731A408282704743
:100E000021B1828A42F00802828204E0828A4FF68F
:100E1000F7731A408282704721B1828942F40042FE
:100E2000828103E08289C2F30E028281704721B180
:100E3000828A42F40062828204E0828A4FF2FF7367
:100E40001A4082827047828A4FF6FB731A40828270
:100E5000828A0A438282704721B1828A42F002026A
:100E6000828204E0828A4FF6FD731A4082827047C4
:100E700002460020B1F5007F00D100BF13880B426D
:100E800001D0012000E00020704701F40072B2F5AB
:100E9000007F00D100BFCA430280704770B5024690
:100EA0000024002300250020A1F510666A3E00D131
:100EB00000BFC1F3421501F01F03012606FA03F338
:100EC000012D02D19689334006E0022D02D1168A07
:100ED000334001E0968A33400C12012606FA04F4EE
:100EE0001688344013B10CB1012000E0002070BD21
:100EF00010B500220023A1F510646A3C00D100BFA8
:100F00000A1201249440A3B2DC43048010BD000007
:100F1000003801400044004000480040004C0040C0
:100F200000500040482000F07BFA00F045F800F047
:100F3000FDF806A000F03AFB00F026F9074908602A
:100F400000F0B8F901E000F088F8FCE7204C697384
:100F50007420546573740D0A0000000030000020F6
:100F6000704700BFFEE700BFFEE700BFFEE700BF1F
:100F7000FEE7704770477047704710B540F2255143
:100F80000A48FFF78BFF80B10848FFF707FFC4B29C
:100F900007480078642808DA064805490978445467
:100FA00003480078401C0249087010BD0038014019
:100FB000280000204400002000B587B0012144F241
:100FC0000400FFF743FD4FF40070ADF8180018203F
:100FD0008DF81B0003208DF81A0006A94948FFF779
:100FE0007FFA4FF48060ADF8180004208DF81B00E4
:100FF00006A94448FFF774FA4FF4E130029000204C
:10100000ADF80C00ADF80E00ADF81000ADF814000E
:101010000C20ADF8120002A93B48FFF7C2FD0122E7
:1010200040F225513848FFF754FE01213648FFF7BA
:1010300044FE4FF4E060FFF785F925208DF80400A9
:1010400000208DF8050001208DF806008DF80700BE
:1010500001A8FFF77CF907B000BD10B52B48047854
:10106000007884421CD1DCB10A2000F0F5F9274851
:101070000078844214D19CB1244802782449254840
:1010800000F030FA24A000F091FA022000F0F9F804
:101090001E4801781E4800F03EFA00201B490870E7
:1010A00010BD2DE9F04104460D460026002700BF83
:1010B00007E03046711CCEB2275C39461AA000F01A
:1010C00075FAAE42F5DBBDE8F08170B504460D4619
:1010D000E1B20D48FFF75EFE00BF40210A48FFF76E
:1010E000C7FE0028F9D0204670BD10B5044600BFE9
:1010F00020210548FFF7BCFE0028F9D00248FFF781
:101100004DFE10BD000801400038014028000020BD
:1011100044000020D401002044656C657465204CB7
:101120006973740D0A0000002564000008B50121F0
:101130001820FFF78BFC0120ADF8000010208DF87F
:10114000030003208DF8020069460D48FFF7C8F937
:101150000820ADF8000069460A48FFF7C1F91020E1
:10116000ADF8000069460748FFF7BAF901210448C5
:10117000FFF761FA18210348FFF75FFA08BD000086
:10118000000C01400010014010B51C2000F032FBA3
:10119000844908600846006820B983A000F006FA78
:1011A000002010BD00207F49096808707D48006854
:1011B000002140F8011F4160018100207949096840
:1011C000C8720A21774800680C3000F0A4F90020AA
:1011D00074490968886173480068E2E72DE9F041C5
:1011E00006467048006885696E4807681C2000F054
:1011F00001FB04462CB96EA000F0D8F90020BDE830
:10120000F08130782070711C601C00F09DF9F07A3C
:10121000E07206F10C0104F10C0000F095F917E002
:1012200020782978884211D1691C601C00F07EF971
:10123000691C601C00F07AF940B9E07AE97A8842CA
:1012400004D15DA000F0B2F90020D8E72F46AD69C7
:10125000002DE5D1B869A061BC610120CFE738B5A8
:1012600050480068846909E004F10C000090E37ABA
:101270002178621C53A000F099F9A469002CF3D1E5
:1012800038BD70B50646474800688469454805681A
:101290000BE02078B04206D1A069A861204600F09A
:1012A00081FAAC6901E02546A469002CF1D1FFF771
:1012B000D6FF70BD10B51C2000F09CFA044624B97E
:1012C0004AA000F073F9002010BD0120207049A150
:1012D000601C00F039F90120E07247A104F10C0014
:1012E00000F032F92046FFF779FF0220207044A178
:1012F000601C00F029F90120E07243A104F10C0008
:1013000000F022F92046FFF769FF0220207039A182
:10131000601C00F019F90120E0723DA104F10C00FD
:1013200000F012F92046FFF759FF1C2000F062FA86
:1013300004460220207032A1601C00F005F9042050
:10134000E07235A104F10C0000F0FEF82046FFF732
:1013500045FF1C2000F04EFA04460120207028A111
:10136000601C00F0F1F80620E07227A104F10C00E7
:1013700000F0EAF82046FFF731FF042020701DA19D
:10138000601C00F0E1F80120E0721BA104F10C00E8
:1013900000F0DAF82046FFF721FFFFF760FF012099
:1013A00092E700003000002066616C736531000038
:1013B00066616C73653200007265706561740D0A58
:1013C0000000000020616464723A25642C74797016
:1013D000653A25732C6368616E656C3A25642C64EC
:1013E0006174613A25730D0A0000000066616C7338
:1013F00065300000494F0000756E707265737300B0
:1014000052656C61790000006F70656E000000002D
:101410007072657373000000636C6F736500000089
:101420004FF0E021096921F004014FF0E022116141
:10143000C21700EB5272C2F3C702284B1A7019464A
:10144000097801EB4102C2EBC1114FF6FF7202EACB
:10145000C101234A118070470146214A12884A433C
:101460004FF0E0235A6100229A6101221A6100BF05
:101470004FF0E022106910F0010F02D010F4803F0D
:10148000F6D000224FF0E0231A619A61704710B540
:10149000044604E04FF47A70FFF7DEFF641E002C70
:1014A000F8D110BD01460D4A12784A434FF0E023AF
:1014B0005A6100229A6101221A6100BF4FF0E022B6
:1014C000106910F0010F02D010F4803FF6D0002216
:1014D0004FF0E0231A619A61704700003400002049
:1014E0003600002040EA01039B0703D009E008C949
:1014F000121F08C0042AFAD203E011F8013B00F8D9
:10150000013B521EF9D27047D2B201E000F8012B24
:10151000491EFBD270470022F6E710B513460A4673
:1015200004461946FFF7F0FF204610BD10B5002213
:1015300000E0521C835C8C5CA34201D1002BF8D1EB
:10154000D8B2E1B2401A10BD034611F8012B00F8E1
:10155000012B002AF9D11846704730B50B460146D9
:1015600000202022012409E021FA02F59D4205D342
:1015700003FA02F5491B04FA02F52844151EA2F1EC
:101580000102F1DC30BD0000064C074D06E0E068CA
:1015900040F0010394E8070098471034AC42F6D3BA
:1015A000FEF7CAFD60180008801800080FB4054B4C
:1015B00010B503A9044A029800F018F810BC5DF8B1
:1015C00014FB0000CB1000083800002002E008C81F
:1015D000121F08C1002AFAD170477047002001E0AD
:1015E00001C1121F002AFBD1704700002DE9FF4FF7
:1015F0008BB09A460F4605460026C9E0252837D10C
:1016000000246D1C6649A04601222B78203B02FA7B
:1016100003F0084202D004436D1CF6E728782E2818
:1016200017D115F8010F44F004042A280ED06FF0EA
:101630002F022878A0F1300109290AD808EB880187
:1016400002EB410100EB01086D1CF2E757F8048B37
:101650006D1C287869283FD006DC002871D06328EB
:101660000CD0642804D137E0732811D075284ED0EF
:1016700052460D99904706F1010688E017F8040BD1
:101680008DF8000000208DF80100E946012003E0FC
:1016900057F8049B4FF0FF3061074FF0000401D46E
:1016A0000AE0641C44450DDA8442FADB19F80410A0
:1016B0000029F6D106E0641C8442FCDB19F8041012
:1016C0000029F8D1264404E019F8010B52460D997F
:1016D0009047641EF8D25AE001CF4FF00A0B002861
:1016E00004DAC0F100004FF02D0102E0210504D51D
:1016F0002B218DF82410012103E0E10705D02021E2
:10170000F7E70DF1200908910CE00021F9E701CF7E
:101710004FF00A0BF9E75946FFF71FFF01F13002BE
:1017200009F8012D0028F6D1ADEB090000F1200BDE
:10173000600701D44FF00108D84503DDA8EB0B008A
:1017400001E029E000208046002406E009A8524676
:10175000005D0D999047761C641C08988442F5DB67
:1017600004E0302052460D999047761CB8F10001F4
:10177000A8F10108F5DC05E019F8010B52460D99B6
:101780009047761CBBF10001ABF1010BF4DC6D1C42
:10179000287800287FF432AF0FB03046BDE8F08FD4
:1017A0000928010010B5002821D0114B001F00228C
:1017B000196803E0814203D80A4649680029F9D133
:1017C00052B11368841A9C4204D100681844106016
:1017D000104602E0506000E0186039B102680B1A50
:1017E000934203D10B681A4402604968416010BDFE
:1017F0003C000020F0B50B30154D20F0070100240F
:10180000144A0FE003688B420BD38B4205D95E1A52
:1018100043184768C3E9006700E04368136002C0EB
:1018200004E0021D10680028ECD12046002802D1F7
:10183000286808B10020F0BD064A07481060074A32
:10184000121A22F00702C0E9002401202860D7E71D
:10185000400000203C0000206C03002068050020B0
:10186000801800080000002044000000CC1500088B
:10187000C41800084400002024090000DC150008FA
:1018800000A24A040000000000000000010203045E
:101890000607080900000000010203040102030416
:1018A0000607080902040608000000000000000006
:1018B0000000000000000000000000000000000028
:0418C0000000000024
:0400000508000131BD
:00000001FF
